{
  "_format": "hh-sol-artifact-1",
  "contractName": "StudentVerificationSystem",
  "sourceName": "contracts/StudentVerificationSystem.sol",
  "abi": [
    {
      "inputs": [],
      "stateMutability": "nonpayable",
      "type": "constructor"
    },
    {
      "inputs": [
        {
          "internalType": "string",
          "name": "_collegeName",
          "type": "string"
        },
        {
          "internalType": "uint256",
          "name": "_collegeUniqueID",
          "type": "uint256"
        },
        {
          "internalType": "address",
          "name": "_collegeAddress",
          "type": "address"
        },
        {
          "internalType": "string",
          "name": "_collegeLocation",
          "type": "string"
        }
      ],
      "name": "addCollege",
      "outputs": [],
      "stateMutability": "nonpayable",
      "type": "function"
    },
    {
      "inputs": [
        {
          "internalType": "uint256",
          "name": "_registrationNumber",
          "type": "uint256"
        },
        {
          "internalType": "string",
          "name": "_hash",
          "type": "string"
        }
      ],
      "name": "addStudent",
      "outputs": [],
      "stateMutability": "nonpayable",
      "type": "function"
    },
    {
      "inputs": [
        {
          "internalType": "uint256",
          "name": "_collegeUniqueID",
          "type": "uint256"
        }
      ],
      "name": "removeCollege",
      "outputs": [],
      "stateMutability": "nonpayable",
      "type": "function"
    },
    {
      "inputs": [
        {
          "internalType": "uint256",
          "name": "_registrationNumber",
          "type": "uint256"
        }
      ],
      "name": "removeStudent",
      "outputs": [],
      "stateMutability": "nonpayable",
      "type": "function"
    },
    {
      "inputs": [
        {
          "internalType": "uint256",
          "name": "_collegeUniqueID",
          "type": "uint256"
        }
      ],
      "name": "viewCollege",
      "outputs": [
        {
          "internalType": "string",
          "name": "",
          "type": "string"
        },
        {
          "internalType": "uint256",
          "name": "",
          "type": "uint256"
        },
        {
          "internalType": "address",
          "name": "",
          "type": "address"
        },
        {
          "internalType": "string",
          "name": "",
          "type": "string"
        },
        {
          "internalType": "bool",
          "name": "",
          "type": "bool"
        },
        {
          "internalType": "uint256",
          "name": "",
          "type": "uint256"
        }
      ],
      "stateMutability": "view",
      "type": "function"
    },
    {
      "inputs": [
        {
          "internalType": "uint256",
          "name": "_collegeUniqueID",
          "type": "uint256"
        },
        {
          "internalType": "uint256",
          "name": "_registrationNumber",
          "type": "uint256"
        }
      ],
      "name": "viewStudent",
      "outputs": [
        {
          "internalType": "uint256",
          "name": "",
          "type": "uint256"
        },
        {
          "internalType": "string",
          "name": "",
          "type": "string"
        },
        {
          "internalType": "bool",
          "name": "",
          "type": "bool"
        },
        {
          "internalType": "uint256",
          "name": "",
          "type": "uint256"
        }
      ],
      "stateMutability": "view",
      "type": "function"
    }
  ],
  "bytecode": "0x608060405234801561001057600080fd5b50600080546001600160a01b031916331790556109b6806100326000396000f3fe608060405234801561001057600080fd5b50600436106100625760003560e01c806342ecc52a146100675780635f6534171461007c5780636af838451461008f578063c840b9c0146100a2578063d6708eb3146100b5578063ff929750146100e3575b600080fd5b61007a610075366004610801565b610106565b005b61007a61008a36600461075f565b6101b6565b61007a61009d3660046107e9565b610368565b61007a6100b03660046107e9565b6103c1565b6100c86100c33660046107e9565b6103f3565b6040516100da969594939291906108b2565b60405180910390f35b6100f66100f1366004610846565b610569565b6040516100da9493929190610903565b3360009081526001602081905260409091206004015460ff1615151461012b57600080fd5b604080516080810182528381526020808201848152600183850181905242606085015233600090815281845285812082015481526003845285812088825284529490942083518155905180519394919361018d9392850192919091019061063f565b50604082015160028201805460ff19169115159190911790556060909101516003909101555050565b6000546001600160a01b031633146101cd57600080fd5b6040805160c08101825285815260208082018690526001600160a01b038516828401819052606083018590526001608084018190524260a085015260009182528252929092208151805192939192610228928492019061063f565b50602082810151600183015560408301516002830180546001600160a01b0319166001600160a01b0390921691909117905560608301518051610271926003850192019061063f565b5060808281015160048301805460ff191691151591909117905560a0928301516005909201919091556040805160c08101825287815260208082018890526001600160a01b03871682840152606082018690526001938201939093524293810193909352600086815260028352208251805191926102f49284929091019061063f565b50602082810151600183015560408301516002830180546001600160a01b0319166001600160a01b039092169190911790556060830151805161033d926003850192019061063f565b50608082015160048201805460ff191691151591909117905560a09091015160059091015550505050565b3360009081526001602081905260409091206004015460ff1615151461038d57600080fd5b336000908152600160208181526040808420909201548352600381528183209383529290925220600201805460ff19169055565b6000546001600160a01b031633146103d857600080fd5b6000908152600260205260409020600401805460ff19169055565b6000818152600260208190526040822060018101549181015460048201546005830154835460609695869588958795869592946001600160a01b0390921692600386019260ff9092169186906104489061092f565b80601f01602080910402602001604051908101604052809291908181526020018280546104749061092f565b80156104c15780601f10610496576101008083540402835291602001916104c1565b820191906000526020600020905b8154815290600101906020018083116104a457829003601f168201915b505050505095508280546104d49061092f565b80601f01602080910402602001604051908101604052809291908181526020018280546105009061092f565b801561054d5780601f106105225761010080835404028352916020019161054d565b820191906000526020600020905b81548152906001019060200180831161053057829003601f168201915b5050505050925095509550955095509550955091939550919395565b6000828152600360208181526040808420858552909152822080546002820154928201546001909201805460609486948594939260ff9092169183906105ae9061092f565b80601f01602080910402602001604051908101604052809291908181526020018280546105da9061092f565b80156106275780601f106105fc57610100808354040283529160200191610627565b820191906000526020600020905b81548152906001019060200180831161060a57829003601f168201915b50505050509250935093509350935092959194509250565b82805461064b9061092f565b90600052602060002090601f01602090048101928261066d57600085556106b3565b82601f1061068657805160ff19168380011785556106b3565b828001600101855582156106b3579182015b828111156106b3578251825591602001919060010190610698565b506106bf9291506106c3565b5090565b5b808211156106bf57600081556001016106c4565b600082601f8301126106e8578081fd5b813567ffffffffffffffff808211156107035761070361096a565b604051601f8301601f19908116603f0116810190828211818310171561072b5761072b61096a565b81604052838152866020858801011115610743578485fd5b8360208701602083013792830160200193909352509392505050565b60008060008060808587031215610774578384fd5b843567ffffffffffffffff8082111561078b578586fd5b610797888389016106d8565b955060208701359450604087013591506001600160a01b03821682146107bb578384fd5b909250606086013590808211156107d0578283fd5b506107dd878288016106d8565b91505092959194509250565b6000602082840312156107fa578081fd5b5035919050565b60008060408385031215610813578182fd5b82359150602083013567ffffffffffffffff811115610830578182fd5b61083c858286016106d8565b9150509250929050565b60008060408385031215610858578182fd5b50508035926020909101359150565b60008151808452815b8181101561088c57602081850181015186830182015201610870565b8181111561089d5782602083870101525b50601f01601f19169290920160200192915050565b60c0815260006108c560c0830189610867565b602083018890526001600160a01b038716604084015282810360608401526108ed8187610867565b9415156080840152505060a00152949350505050565b84815260806020820152600061091c6080830186610867565b9315156040830152506060015292915050565b600181811c9082168061094357607f821691505b6020821081141561096457634e487b7160e01b600052602260045260246000fd5b50919050565b634e487b7160e01b600052604160045260246000fdfea2646970667358221220b0ce049f34767505d0a48927545b603fb81572f8f3175db926007fcc2f5decfd64736f6c63430008040033",
  "linkReferences": {},
  "deployedLinkReferences": {}
}