{
  "_format": "hh-sol-artifact-1",
  "contractName": "StudentVerificationSystem",
  "sourceName": "contracts/StudentVerificationSystem.sol",
  "abi": [
    {
      "inputs": [],
      "stateMutability": "nonpayable",
      "type": "constructor"
    },
    {
      "inputs": [
        {
          "internalType": "uint256",
          "name": "_registrationNumber",
          "type": "uint256"
        },
        {
          "internalType": "string",
          "name": "_name",
          "type": "string"
        },
        {
          "internalType": "string",
          "name": "_hash",
          "type": "string"
        }
      ],
      "name": "addCertificate",
      "outputs": [],
      "stateMutability": "nonpayable",
      "type": "function"
    },
    {
      "inputs": [
        {
          "internalType": "string",
          "name": "_collegeName",
          "type": "string"
        },
        {
          "internalType": "string",
          "name": "_collegeUniqueID",
          "type": "string"
        },
        {
          "internalType": "address",
          "name": "_collegeAddress",
          "type": "address"
        },
        {
          "internalType": "string",
          "name": "_collegeLocation",
          "type": "string"
        }
      ],
      "name": "addCollege",
      "outputs": [],
      "stateMutability": "nonpayable",
      "type": "function"
    },
    {
      "inputs": [
        {
          "internalType": "address",
          "name": "_ID",
          "type": "address"
        }
      ],
      "name": "addGateKeeper",
      "outputs": [],
      "stateMutability": "nonpayable",
      "type": "function"
    },
    {
      "inputs": [
        {
          "internalType": "uint256",
          "name": "_registrationNumber",
          "type": "uint256"
        }
      ],
      "name": "addIntime",
      "outputs": [],
      "stateMutability": "nonpayable",
      "type": "function"
    },
    {
      "inputs": [
        {
          "internalType": "uint256",
          "name": "_registrationNumber",
          "type": "uint256"
        }
      ],
      "name": "addOuttime",
      "outputs": [],
      "stateMutability": "nonpayable",
      "type": "function"
    },
    {
      "inputs": [
        {
          "internalType": "uint256",
          "name": "_registrationNumber",
          "type": "uint256"
        },
        {
          "internalType": "string",
          "name": "_hash",
          "type": "string"
        }
      ],
      "name": "addStudent",
      "outputs": [],
      "stateMutability": "nonpayable",
      "type": "function"
    },
    {
      "inputs": [
        {
          "internalType": "string",
          "name": "_collegeUniqueID",
          "type": "string"
        }
      ],
      "name": "removeCollege",
      "outputs": [],
      "stateMutability": "nonpayable",
      "type": "function"
    },
    {
      "inputs": [
        {
          "internalType": "uint256",
          "name": "_registrationNumber",
          "type": "uint256"
        }
      ],
      "name": "removeStudent",
      "outputs": [],
      "stateMutability": "nonpayable",
      "type": "function"
    },
    {
      "inputs": [
        {
          "internalType": "string",
          "name": "_collegeUniqueID",
          "type": "string"
        },
        {
          "internalType": "uint256",
          "name": "_registrationNumber",
          "type": "uint256"
        }
      ],
      "name": "viewCertificate",
      "outputs": [
        {
          "components": [
            {
              "internalType": "string",
              "name": "name",
              "type": "string"
            },
            {
              "internalType": "string",
              "name": "hash",
              "type": "string"
            }
          ],
          "internalType": "struct StudentVerificationSystem.Certificate[]",
          "name": "",
          "type": "tuple[]"
        }
      ],
      "stateMutability": "view",
      "type": "function"
    },
    {
      "inputs": [
        {
          "internalType": "string",
          "name": "_collegeUniqueID",
          "type": "string"
        }
      ],
      "name": "viewCollege",
      "outputs": [
        {
          "internalType": "string",
          "name": "",
          "type": "string"
        },
        {
          "internalType": "string",
          "name": "",
          "type": "string"
        },
        {
          "internalType": "address",
          "name": "",
          "type": "address"
        },
        {
          "internalType": "string",
          "name": "",
          "type": "string"
        },
        {
          "internalType": "bool",
          "name": "",
          "type": "bool"
        },
        {
          "internalType": "uint256",
          "name": "",
          "type": "uint256"
        }
      ],
      "stateMutability": "view",
      "type": "function"
    },
    {
      "inputs": [
        {
          "internalType": "string",
          "name": "_collegeUniqueID",
          "type": "string"
        },
        {
          "internalType": "uint256",
          "name": "_registrationNumber",
          "type": "uint256"
        }
      ],
      "name": "viewOutPassData",
      "outputs": [
        {
          "components": [
            {
              "internalType": "uint256",
              "name": "intime",
              "type": "uint256"
            }
          ],
          "internalType": "struct StudentVerificationSystem.OutPassIntime[]",
          "name": "",
          "type": "tuple[]"
        },
        {
          "components": [
            {
              "internalType": "uint256",
              "name": "outtime",
              "type": "uint256"
            }
          ],
          "internalType": "struct StudentVerificationSystem.OutPassOuttime[]",
          "name": "",
          "type": "tuple[]"
        }
      ],
      "stateMutability": "view",
      "type": "function"
    },
    {
      "inputs": [
        {
          "internalType": "string",
          "name": "_collegeUniqueID",
          "type": "string"
        },
        {
          "internalType": "uint256",
          "name": "_registrationNumber",
          "type": "uint256"
        }
      ],
      "name": "viewStudent",
      "outputs": [
        {
          "internalType": "uint256",
          "name": "",
          "type": "uint256"
        },
        {
          "internalType": "string",
          "name": "",
          "type": "string"
        },
        {
          "internalType": "bool",
          "name": "",
          "type": "bool"
        },
        {
          "internalType": "uint256",
          "name": "",
          "type": "uint256"
        }
      ],
      "stateMutability": "view",
      "type": "function"
    }
  ],
  "bytecode": "0x608060405234801561001057600080fd5b50600080546001600160a01b03191633179055611a26806100326000396000f3fe608060405234801561001057600080fd5b50600436106100b45760003560e01c8063816d7daa11610071578063816d7daa14610155578063995b276714610168578063a125035a1461017b578063ac6a82c31461018e578063d0d026e4146101af578063d2eb0d0b146101c257600080fd5b806342ecc52a146100b957806366248f39146100ce5780636af83845146100fc5780636c939c6b1461010f57806370e4887b146101225780638109d70a14610135575b600080fd5b6100cc6100c736600461162c565b6101e5565b005b6100e16100dc366004611501565b6102c6565b6040516100f3969594939291906118be565b60405180910390f35b6100cc61010a366004611614565b61058e565b6100cc61011d366004611614565b610605565b6100cc6101303660046114e0565b610688565b6101486101433660046115d1565b610928565b6040516100f391906117be565b6100cc610163366004611501565b610bcb565b6100cc610176366004611671565b610c1a565b6100cc610189366004611614565b610cd7565b6101a161019c3660046115d1565b610d20565b6040516100f3929190611842565b6100cc6101bd36600461153c565b611012565b6101d56101d03660046115d1565b611206565b6040516100f3949392919061191c565b3360009081526001602081905260409091206004015460ff1615151461020a57600080fd5b604051806080016040528083815260200182815260200160011515815260200142815250600360016000336001600160a01b03166001600160a01b031681526020019081526020016000206001016040516102659190611723565b908152604080516020928190038301902060008681529083522082518155828201518051919261029d926001850192909101906113a4565b50604082015160028201805460ff19169115159190911790556060909101516003909101555050565b606080600060606000806002876040516102e09190611707565b9081526040519081900360200190206004015460ff16151560011461030457600080fd5b6002876040516103149190611707565b90815260405190819003602001812090600290610332908a90611707565b90815260200160405180910390206001016002896040516103539190611707565b9081526040519081900360200181206002908101546001600160a01b03169161037d908c90611707565b908152602001604051809103902060030160028b60405161039e9190611707565b9081526040519081900360200181206004015460ff16906002906103c3908e90611707565b9081526020016040518091039020600501548580546103e190611978565b80601f016020809104026020016040519081016040528092919081815260200182805461040d90611978565b801561045a5780601f1061042f5761010080835404028352916020019161045a565b820191906000526020600020905b81548152906001019060200180831161043d57829003601f168201915b5050505050955084805461046d90611978565b80601f016020809104026020016040519081016040528092919081815260200182805461049990611978565b80156104e65780601f106104bb576101008083540402835291602001916104e6565b820191906000526020600020905b8154815290600101906020018083116104c957829003601f168201915b505050505094508280546104f990611978565b80601f016020809104026020016040519081016040528092919081815260200182805461052590611978565b80156105725780601f1061054757610100808354040283529160200191610572565b820191906000526020600020905b81548152906001019060200180831161055557829003601f168201915b5050505050925095509550955095509550955091939550919395565b3360009081526001602081905260409091206004015460ff161515146105b357600080fd5b33600090815260016020819052604080832090516003926105d5920190611723565b90815260408051602092819003830190206000948552909152909120600201805460ff1916911515919091179055565b3360009081526005602052604090206002015460ff16151560011461062957600080fd5b3360009081526005602052604090819020905160079161064e91600190910190611723565b9081526040805191829003602090810183206000948552815281842083820190925242835281546001810183559184529092209051910155565b3360009081526001602081905260409091206004015460ff161515146106ad57600080fd5b604080516060810182526001600160a01b0383168152336000908152600160208181529390912001805491928301916106e590611978565b80601f016020809104026020016040519081016040528092919081815260200182805461071190611978565b801561075e5780601f106107335761010080835404028352916020019161075e565b820191906000526020600020905b81548152906001019060200180831161074157829003601f168201915b5050509183525050600160209182018190526001600160a01b0384811660009081526005845260409020845181546001600160a01b031916921691909117815583830151805191936107b5938501929101906113a4565b50604091820151600291909101805460ff191691151591909117905580516060810182526001600160a01b03831681523360009081526001602081815293909120018054919283019161080790611978565b80601f016020809104026020016040519081016040528092919081815260200182805461083390611978565b80156108805780601f1061085557610100808354040283529160200191610880565b820191906000526020600020905b81548152906001019060200180831161086357829003601f168201915b5050509183525050600160209182018190523360009081529181905260409182902091516006926108b2920190611723565b90815260408051602092819003830190206001600160a01b038581166000908152918452919020835181546001600160a01b03191692169190911781558282015180519192610909926001850192909101906113a4565b50604091909101516002909101805460ff191691151591909117905550565b6060600060048460405161093c9190611707565b90815260408051602092819003830190206000868152925290205467ffffffffffffffff81111561097d57634e487b7160e01b600052604160045260246000fd5b6040519080825280602002602001820160405280156109c257816020015b604080518082019091526060808252602082015281526020019060019003908161099b5790505b50905060005b6004856040516109d89190611707565b908152604080516020928190038301902060008781529252902054811015610bc357600485604051610a0a9190611707565b908152602001604051809103902060008581526020019081526020016000208181548110610a4857634e487b7160e01b600052603260045260246000fd5b9060005260206000209060020201604051806040016040529081600082018054610a7190611978565b80601f0160208091040260200160405190810160405280929190818152602001828054610a9d90611978565b8015610aea5780601f10610abf57610100808354040283529160200191610aea565b820191906000526020600020905b815481529060010190602001808311610acd57829003601f168201915b50505050508152602001600182018054610b0390611978565b80601f0160208091040260200160405190810160405280929190818152602001828054610b2f90611978565b8015610b7c5780601f10610b5157610100808354040283529160200191610b7c565b820191906000526020600020905b815481529060010190602001808311610b5f57829003601f168201915b505050505081525050828281518110610ba557634e487b7160e01b600052603260045260246000fd5b60200260200101819052508080610bbb906119b3565b9150506109c8565b509392505050565b6000546001600160a01b03163314610be257600080fd5b6000600282604051610bf49190611707565b908152604051908190036020019020600401805491151560ff1990921691909117905550565b3360009081526001602081905260409091206004015460ff16151514610c3f57600080fd5b336000908152600160208190526040918290209151600492610c62920190611723565b9081526040805191829003602090810183206000878152908252828120848401909352858452838201859052825460018101845592815281902083518051600290940290910192610cb692849201906113a4565b506020828101518051610ccf92600185019201906113a4565b505050505050565b3360009081526005602052604090206002015460ff161515600114610cfb57600080fd5b3360009081526005602052604090819020905160089161064e91600190910190611723565b6060806000600785604051610d359190611707565b90815260408051602092819003830190206000878152925290205467ffffffffffffffff811115610d7657634e487b7160e01b600052604160045260246000fd5b604051908082528060200260200182016040528015610db657816020015b604080516020810190915260008152815260200190600190039081610d945790505b50905060005b600786604051610dcc9190611707565b908152604080516020928190038301902060008881529252902054811015610e9457600786604051610dfe9190611707565b908152602001604051809103902060008681526020019081526020016000208181548110610e3c57634e487b7160e01b600052603260045260246000fd5b6000918252602091829020604080519384019052015481528251839083908110610e7657634e487b7160e01b600052603260045260246000fd5b60200260200101819052508080610e8c906119b3565b915050610dbc565b506000600886604051610ea79190611707565b90815260408051602092819003830190206000888152925290205467ffffffffffffffff811115610ee857634e487b7160e01b600052604160045260246000fd5b604051908082528060200260200182016040528015610f2857816020015b604080516020810190915260008152815260200190600190039081610f065790505b50905060005b600887604051610f3e9190611707565b90815260408051602092819003830190206000898152925290205481101561100657600887604051610f709190611707565b908152602001604051809103902060008781526020019081526020016000208181548110610fae57634e487b7160e01b600052603260045260246000fd5b6000918252602091829020604080519384019052015481528251839083908110610fe857634e487b7160e01b600052603260045260246000fd5b60200260200101819052508080610ffe906119b3565b915050610f2e565b50909590945092505050565b6000546001600160a01b0316331461102957600080fd5b6040805160c08101825285815260208082018690526001600160a01b038516828401819052606083018590526001608084018190524260a08501526000918252825292909220815180519293919261108492849201906113a4565b50602082810151805161109d92600185019201906113a4565b5060408201516002820180546001600160a01b0319166001600160a01b03909216919091179055606082015180516110df9160038401916020909101906113a4565b5060808201518160040160006101000a81548160ff02191690831515021790555060a082015181600501559050506040518060c00160405280858152602001848152602001836001600160a01b03168152602001828152602001600115158152602001428152506002846040516111569190611707565b908152602001604051809103902060008201518160000190805190602001906111809291906113a4565b50602082810151805161119992600185019201906113a4565b5060408201516002820180546001600160a01b0319166001600160a01b03909216919091179055606082015180516111db9160038401916020909101906113a4565b50608082015160048201805460ff191691151591909117905560a09091015160059091015550505050565b6000606060008060038660405161121d9190611707565b908152604080519182900360209081019092206000888152925290206002015460ff16151560011461124e57600080fd5b60038660405161125e9190611707565b90815260408051918290036020908101832060008981529152205490600390611288908990611707565b90815260408051918290036020908101832060008a8152915220600101906003906112b4908a90611707565b90815260408051918290036020908101832060008b81529152206002015460ff16906003906112e4908b90611707565b908152602001604051809103902060008981526020019081526020016000206003015482805461131390611978565b80601f016020809104026020016040519081016040528092919081815260200182805461133f90611978565b801561138c5780601f106113615761010080835404028352916020019161138c565b820191906000526020600020905b81548152906001019060200180831161136f57829003601f168201915b50505050509250935093509350935092959194509250565b8280546113b090611978565b90600052602060002090601f0160209004810192826113d25760008555611418565b82601f106113eb57805160ff1916838001178555611418565b82800160010185558215611418579182015b828111156114185782518255916020019190600101906113fd565b50611424929150611428565b5090565b5b808211156114245760008155600101611429565b80356001600160a01b038116811461145457600080fd5b919050565b600082601f830112611469578081fd5b813567ffffffffffffffff80821115611484576114846119da565b604051601f8301601f19908116603f011681019082821181831017156114ac576114ac6119da565b816040528381528660208588010111156114c4578485fd5b8360208701602083013792830160200193909352509392505050565b6000602082840312156114f1578081fd5b6114fa8261143d565b9392505050565b600060208284031215611512578081fd5b813567ffffffffffffffff811115611528578182fd5b61153484828501611459565b949350505050565b60008060008060808587031215611551578283fd5b843567ffffffffffffffff80821115611568578485fd5b61157488838901611459565b95506020870135915080821115611589578485fd5b61159588838901611459565b94506115a36040880161143d565b935060608701359150808211156115b8578283fd5b506115c587828801611459565b91505092959194509250565b600080604083850312156115e3578182fd5b823567ffffffffffffffff8111156115f9578283fd5b61160585828601611459565b95602094909401359450505050565b600060208284031215611625578081fd5b5035919050565b6000806040838503121561163e578182fd5b82359150602083013567ffffffffffffffff81111561165b578182fd5b61166785828601611459565b9150509250929050565b600080600060608486031215611685578283fd5b83359250602084013567ffffffffffffffff808211156116a3578384fd5b6116af87838801611459565b935060408601359150808211156116c4578283fd5b506116d186828701611459565b9150509250925092565b600081518084526116f3816020860160208601611948565b601f01601f19169290920160200192915050565b60008251611719818460208701611948565b9190910192915050565b600080835482600182811c91508083168061173f57607f831692505b602080841082141561175f57634e487b7160e01b87526022600452602487fd5b8180156117735760018114611784576117b0565b60ff198616895284890196506117b0565b60008a815260209020885b868110156117a85781548b82015290850190830161178f565b505084890196505b509498975050505050505050565b60006020808301818452808551808352604092508286019150828160051b870101848801865b8381101561183457888303603f1901855281518051878552611808888601826116db565b91890151858303868b015291905061182081836116db565b9689019694505050908601906001016117e4565b509098975050505050505050565b604080825283519082018190526000906020906060840190828701845b8281101561187c578151518452928401929084019060010161185f565b50505083810382850152845180825285830191830190845b818110156118b15783515183529284019291840191600101611894565b5090979650505050505050565b60c0815260006118d160c08301896116db565b82810360208401526118e381896116db565b6001600160a01b03881660408501528381036060850152905061190681876116db565b9415156080840152505060a00152949350505050565b84815260806020820152600061193560808301866116db565b9315156040830152506060015292915050565b60005b8381101561196357818101518382015260200161194b565b83811115611972576000848401525b50505050565b600181811c9082168061198c57607f821691505b602082108114156119ad57634e487b7160e01b600052602260045260246000fd5b50919050565b60006000198214156119d357634e487b7160e01b81526011600452602481fd5b5060010190565b634e487b7160e01b600052604160045260246000fdfea26469706673582212202905c19110900b037e86f5caba3d033b75510f33c49baf2803503712ff37404c64736f6c63430008040033",
  "linkReferences": {},
  "deployedLinkReferences": {}
}